S00600004844521B
S1230000130000001300000013000000130000001300000013000000130000001300000044
S123002013000000130000001300000013000000130000003706000023200600232406008A
S12300402320060223220602232006042322060423280604232A0604232C0604232E060408
S1230060232A06041301000093010000130200009302000013030000930300001304000010
S1230080930400001305000093050000130600009306000013070000930700001308000094
S12300A0930800001309000093090000130A0000930A0000130B0000930B0000130C000054
S12300C0930C0000130D0000930D0000130E0000930E0000130F0000930F00001300000024
S12300E0130000001300000013000000130000001300000013000000130000001300000064
S1230100130000001300000013000000130000001300000013000000130000001300000043
S1230120130000001300000013000000130000001300000013000000130000001300000023
S1230140130000001300000013000000130000001300000013000000130000001300000003
S12301601300000013000000130000001300000013000000130000001300000013000000E3
S12301801300000013000000130000001300000013000000130000001300000013000000C3
S12301A01300000013000000130000001300000013000000130000001300000013000000A3
S12301C0130000001300000013000000130000001300000013000000B705008037063810E8
S12301E01306361323A0C5003716B8E61306F66523A2C50037F60F0023A4C5003706020021
S123020093050000B305B60037040048130404FE3304B440930500063301B440B70500404B
S12302207300100013000000130000001300000000000000000000000000000000000000FE
S123024000000000000000000000000000000000000000000000000000000000000000009A
S123026000000000000000000000000000000000000000000000000000000000000000007A
S123028000000000000000000000000000000000000000000000000000000000000000005A
S12302A000000000000000000000000000000000000000000000000000000000000000003A
S12302C000000000000000000000000000000000000000000000000000000000000000001A
S12302E00000000000000000000000000000000000000000000000000000000000000000FA
S5030018E4
S9030000FC
